:1075E60090004EE075F002A424B6F582E5F0340072
:1075F600F583E493FE740193AA06F97BFF787EA6D1
:067606000308A60208F6CD
:0B760C0012408AFE9000011240A3FF14
:017617002250
:04708D008C318D3283
:10709100E4F533900006E0FD64016008ED640560ED
:1070A10003AF3322EF75F002A424BEF9740035F06A
:1070B100FA7BFF1241B7AAF08B348A35F536AB342F
:1070C100AA35A93612760CEF4E7004F533801AEF0B
:1070D100B53209EEB53105753301800D74022536DF
:0B70E100F536E43535F53580D5AF33CA
:0170EC002281
:0B7B6E009002E0EEF0A3EFF0027ABD01
:097BB8009002F8EEF0A3EFF022B8
:0B7B79009002F8EEF0A3EFF0027ABDDE
:1076DA007532017533007534AED39002D4E5349512
:1076EA0082E53395835016AB32AA33A934E41240AB
:0D76FA00D0042534F534E43533F53380DC5D
:01770700225F
:107A9700127B6275BD0790FFA2E04410F0E054FE30
:037AA700F080FE6E
:047BD70043A710228E
:10740600E49002DFF0EF1424FC500A700F9002DFC4
:107416007401F0800DE49002DFF080069002DF74C4
:1074260002F0E5A59002E430E505E014F08003746F
:1074360001F09002E4E0D3940174809480400374D8
:0374460001F02230
:106F0800E4FDFCC3ED9FEC9E50570000000000001C
:106F18000000000000000000000000000000000069
:106F28000000000000000000000000000000000059
:106F38000000000000000000000000000000000049
:106F48000000000000000000000000000000000039
:106F5800000000000000000000000DBD00010C80D2
:016F6800A286
:016F69002205
:065C41008B228A23892456
:105C4700E4F526C3E5269404748094805015AB22AE
:105C5700AA23A92485268275830074FF1240E205D2
:105C67002680E0E49002F7F043A0674380C053A08A
:105C7700FE85A025F526C3E5269407748094804009
:105C870003025D617F047E00126F08E590F528E44A
:105C9700F527C3E52794087480948050519002F744
:105CA700E09404748094805045E528FD7C00F460FE
:105CB7003D7E007401A827088005C333CE33CED8B4
:105CC700F9FFEE5CFEEF5D4E7020E52675F008A447
:105CD700252704FFAB22AA23A9249002F7E0FE049C
:105CE700F08E82758300EF1240E2052780A4AF266D
:105CF7007E00C3EF9405748094805048752567C370
:105D0700EF9402748094804011E5262403FFF87411
:105D170001088002C333D8FC800EE52604FFF8741F
:105D270001088002C333D8FCF45225E526640470C9
:105D37000B75A0675380BF8580258019E5255467BB
:105D4700F5A08011E5266405700843804053807FE5
:105D570080034380C00526025C7D53A09853803F93
:095D6700AB22AA23A924026C86D8
:10792900E4FFEFC3940474809480500F740B2FF517
:0B79390082E43400F583E4F00F80E7E7
:017944002220
:1079610053AABF53A09853803F7F047E00126F0833
:0B797100AF90EFF47002FF227F0122B4
:0C7B5600127961EF70FA7F01FE027734B3
:066C86008B298A2A892BEC
:106C8C007E5E7F979002F7E0D394047480948040EA
:106C9C00037404F0E4FD9002F7E0FCEDC39C501D7E
:106CAC00AB29AA2AA92B8D827583001240A3FC74F0
:106CBC002C2DF8A604742C2DF8160D80D9E4FD901B
:106CCC0002F7E0FCEDC39C501F742C2DF8E62FF559
:106CDC0082E43EF583E493AB29AA2AA92B8D827515
:086CEC0083001240E20D80D785
:016CF400227D
:106E3A00900006E014F547786F76FF08760008762A
:106E4A00AE90004EE075F002A4AEF026F618EE36CB
:106E5A00F618860308E6FA08E6F91241B7AAF078A6
:106E6A007E76FF08A60208F6787E860308E6FA0808
:106E7A00E6F98547827583001240A3FF7BFF7A5E9D
:106E8A0079CD787EA60308A60208A60112408AF5E3
:076E9A00476F6001227F5ADF
:016EA10022CE
:10728F009002DA7401F09002E8E0F47043127A2F62
:10729F001276DA7F3A127BCA12445FEF700F9000BA
:1072AF0050F090005DF09002E874FFF02290008E95
:1072BF00E02456F582E43400F583E004F0900050AA
:1072CF007401F09000A1E07004FF1278D01259B74A
:0172DF00228C
:107A2F00E4900091F09002EBE090005CF090000683
:067A3F00E09002E8F022D5
:097BC1009002E0EEF0A3EFF022C7
:10773400EF4E6025127B8F9000A9E07002A3E070E9
:10774400F69002E0E07002A3E0700E9002F8E070A0
:0A77540002A3E07004C2A9C28C2257
:10788B00127B8F9000A9E07002A3E0600F12796168
:10789B00EF640170EEC2A9C28C7F0122C2A9C28C17
:0378AB007F002239
:10584E00900069E064F47003787DF69000AEE0FE9F
:10585E00A3E0FBAA06D394BFEA9400EB401025E028
:10586E00FBEA33FAC313F532EB13F533801425E05C
:10587E00FBEA33FA7C007D03AF03FE1241168E3233
:10588E008F33AF33C374FF9FF5E4C3EB9FFFC37435
:10589E00FF9FF5E57C007D7DAF03AE021241047CD7
:1058AE00037DE81241169000A7EEF0A3EFF0AE02D2
:1058BE00AF037C007D7D1241047C037DE81241160E
:1058CE007E007F64CFCDCFCECCCE12411690009D00
:1058DE00EEF0A3EFF09000A7E0FAA3E0FB7EFF7FCF
:1058EE00FFFDAC02124116EF24FEFFEE34FFFE90D8
:1058FE000002F0A3EFF0AD03AC021241049000528F
:10590E00EEF0A3EFF0900002E0FEA3E0FF7C007D3E
:10591E000A12411690009DE0FCA3E0FD124104EE38
:10592E00C313FCEF13FD900052E0C313FEA3E0136C
:10593E00FFC3E49FFFE49EFEC3EF9DFFEE9C90022B
:10594E00F0F0A3EFF0900069E064F4600F90006552
:10595E00E030E30F900069E064F06007E49000052A
:10596E00F080069000057401F09000177401F0901D
:10597E00004FF0E49002DCF090008FF0900069E0B0
:10598E0064F07018900089E0FBA3E0FAA3E0F9122E
:10599E0041B7FF9002FDE5F0F0A3EFF043E1107F79
:0959AE000112003ED2AF02784262
:107AAA0075CAFF75CBFFE4FF12003E53B0FEC2ADAC
:037ABA00C2CA221B
:106F6A00900050E0603C7881860308E6FA08E6F96A
:106F7A00C003C002C001900089E0FBA3E0FAA3E0CD
:106F8A00F9D082D083D0E06B7008E965827003EA99
:106F9A00658370069002DA7402F09002DAE0640205
:106FAA0070F87F327E00126F08127AAAE4900050BD
:106FBA00F090000674FFF09002E8F0E490005DF0B3
:016FCA0022A4
:1067E300E4FDFC900069E064F470030268759000B6
:1067F30065E0131313540164016077E4FBFAD3904B
:1068030000AFE0944B9000AEE094005002803CEB6C
:1068130025E0FFEA33FE74B62FF58274003EF5835C
:10682300E0548FFCA3E0FDEB4A7008ED7003EC64C9
:10683300806030C3ED9404EC94004027EB30E023F8
:10684300900065E013131354017018EB25E0FFEA81
:1068530033FE74B62FF58274003EF58374FFF5F0B2
:106863001241A10BBB00010AEB64107003EA64013F
:02687300708C27
:016875002200
:1059B70090001AE070031267E37B017A0079B690D2
:1059C7000089EBF0A3EAF0A3E9F01241B7FFE5F095
:1059D700547F4F7021900089E0FBA3E0FAA3E0F920
:1059E7001241B7FFE5F0547F4F700B90008A75F0B6
:1059F700041241A180DF9000AB7401F0A37400F0A2
:105A0700A374B6F09000B0E0FEA3E0AC0625E0FF7B
:105A1700EC339000AC8FF01241A19000ABE0FBA3F8
:105A2700E0FAA3E0F97860A60308A60208A60190A9
:105A37000089E0FBA3E0FAA3E0F91241B7FF900267
:105A4700FDE5F0F0A3EFF0900089A3A3E0C3900277
:105A5700D69582EA9583500F786008E6FA08E6C380
:105A67009582EA95834003025B0378817601087685
:105A7700000876B69000B4E0FCA3E0FD25E0FFEC5B
:105A870033FEEF26F618EE36F618860308E6FA0810
:105A9700E6F91241B7FFE5F0547F4F701F78818612
:105AA7000308E6FA08E6F91241B7FFE5F0547F4F1D
:105AB700700A740426F618E436F680E178847601D5
:105AC7000876000876B69000B2E0FCA3E0FD25E07A
:105AD700FFEC33FEEF26F618EE36F6788108E6FA85
:105AE70008E6C39002D69582EA9583500F7884081A
:105AF700E6FA08E6C39582EA95834006E4900050EB
:055B0700F02212584ECF
:015B0C002276
:10445F009000A5E0600302450290004EE0FF7E0051
:10446F00701190000FE0FDA3E090009FCDF0A3ED41
:10447F00F08058EF64034E700990009FF0A304F092
:10448F0080497866760108760008760F786686038D
:10449F0008E6FA08E6F990008EE075F002A4F582BE
:1044AF0085F0831240A390009FF0A3E4F090008E5C
:1044BF00E075F002A429F9EA35F0FA9000011240F4
:1044CF00A3FF90009FE0F0A3E04FF0900061E0FEAB
:1044DF00A3E0FF4E600890009FEEF0A3EFF0900076
:1044EF004EE070057F01FE801D90009FE0FEA3E06F
:1044FF00FF801390004EE070057F01FE8008900052
:10450F009FE0FEA3E0FF126D627872A60308A60279
:10451F0008A601E4900061F0A3F07872860308E624
:10452F00FA08E6F912760CEF4E7002FF22787286C7
:10453F000308E6FA08E6F91247FEEF7002FF229031
:10454F000094E0FF9000AEE4F0A3EFF09000B6749B
:10455F0080F0A3E4F0788776010876000876B690AD
:10456F000069E054F064F0701CE0540F75F003A480
:10457F00246CF582E5F0345FF583740193FA7402CD
:10458F0093F902440D900085E0F532A3E0F5337501
:10459F0041007542007543327887860308E6FA08B2
:1045AF00E6F9E4FFFE12382D7887A60308A6020865
:1045BF00A601900065E030E00A900085E0F532A397
:1045CF00E0F5337887860308E6FA08E6F91241B773
:1045DF00E5F030E73478870808740226F9F618E416
:1045EF0036FAF6C39002D4E99582EA9583400A0819
:1045FF0074FE26F61874FF36F67887860308E6FAF7
:10460F0008E6F9E4F5F012421A7887860308E6FA0D
:10461F0008E6F9E5328533F01241E2788708E6FAC9
:10462F0008E6AE02C394B6FFEE9400FE7C007D0256
:10463F0012416B9000B0EEF0A3EFF0900065E02018
:10464F00E10302476678870808740226F9F618E432
:10465F0036FAF6C39002D4E99582EA9583400A08A8
:10466F0074FE26F61874FF36F67887860308E6FA86
:10467F0008E6F9748075F00012421A788708E6FA96
:10468F0008E6AE02C394B6FFEE9400FE7C007D02F6
:10469F0012416B9000B4EEF0A3EFF0900087E0F5BD
:1046AF0032A3E0F5337541007542007543327887C8
:1046BF00860308E6FA08E6F97F087E0012382D789F
:1046CF0087A60308A60208A601900065E030E00A5D
:1046DF00900087E0F532A3E0F5337887860308E68C
:1046EF00FA08E6F91241B7E5F030E73478870808A1
:1046FF00740226F9F618E436FAF6C39002D4E99557
:10470F0082EA9583400A0874FE26F61874FF36F67F
:10471F007887860308E6FA08E6F9E4F5F012421AFC
:10472F00E5332414FFE43532FE7887860308E6FA72
:10473F0008E6F9EE8FF01241E2788708E6FA08E60C
:10474F00AE02C394B6FFEE9400FE7C007D021241D0
:10475F006B9000B2EE8010E49000B4F0A3F09000E4
:10476F00B0E0FFA3E0A3CFF0A3EFF0900065E0303F
:10477F00E27A900095E0FCA3E0FDA3E0FEA3E0F554
:10478F00378E368D358C34AF37AE36AD35AC349081
:10479F000067E0543FF9F81243678F378E368D3537
:1047AF008C34A3E0C413135403FF900067E0C413C9
:1047BF001354032FFFE433FE74A02FF582745F3E72
:1047CF00F583E493FFE5375FF537E4F536F535F517
:1047DF0034AF37AE36AD35AC34EC4D4E4F700D9027
:0E47EF0000B2E0FFA3E0A3CFF0A3EFF07F0144
:0147FD002299
:065B0D008B4F8A50895104
:105B1300E55625E0F556E55533F555E4F55AF55BBD
:105B2300C3E55B9556E55A95554003025C3AAF5B76
:105B3300AE5AEEC313FEEF13AB52AA53A954F58228
:105B43008E831240A3F55CE55B20E009E55CC45459
:105B53000FF55C8003535C0FE55C54077003025C34
:105B63003AE55C30E340AB4FAA50A9511241B7E587
:105B7300F020E77174022551F9F551E43550FAF537
:105B830050C39002D4E99582EA9583400C74FE25B4
:105B930051F55174FF3550F550AB4FAA50A95174CC
:105BA3008075F000803CAB4FAA50A9511241B7E574
:105BB300F030E73174022551F9F551E43550FAF527
:105BC30050C39002D4E99582EA9583400C74FE2574
:105BD30051F55174FF3550F550AB4FAA50A951E41C
:105BE300F5F012421AE55C540714F55D247EF58244
:105BF300E43400F583E0FFAB4FAA50A951E48FF0E2
:105C03001241E2AB57AA58A9591241B7FF747E2536
:105C13005DF582E43400F583E024FFFDE434FFFC0A
:105C2300C3EF9DFFE5F09C8FF012421A055BE55B25
:0D5C33007002055A025B23AB4FAA50A95125
:015C40002241
:10382D008E448F45C3E5459410E544940040030252
:10383D003CB2E544C313FEE545132469F5827400DB
:10384D003EF583E0FFE54520E007EFC4540FFF8010
:10385D000353070FEFB410004003023CA7903871DB
:10386D00F82828730238A10238B10239BA023A4554
:10387D00023AD0023B5B023B71023BA6023BDB02EC
:10388D003BF0023C05023CA7023CA7023C27023C50
:10389D00A7023CA1C002C0017552017553007554B9
:1038AD0077023B9E900099E0FCA3E0FDA3E0FEA310
:1038BD00E0F54B8E4A8D498C4890004EE070789023
:1038CD0000A5E06402701D9000A0E024FFFFEFFE54
:1038DD00E4FCFD254BF54BE54A3EF54AED3549F542
:1038ED0049EC804F9000A5E064037029900093E0AF
:1038FD0024FFFFE434FFEF7F00FE3395E0FDFCEF86
:10390D00254BF54BE54A3EF54AE5493DF549E54878
:10391D003CF5488022900010E024FFFF90000FEF4F
:10392D00FEE4FCFD254BF54BE54A3EF54AED3549E8
:10393D00F549EC3548F548E4F546F547900068E063
:10394D00543FFFC3E5479FE54694004003023CA763
:10395D00E54B5401FFE4FEFDFCEF600FC002C0011A
:10396D00755201755300755471800DC002C00175FB
:10397D005201755300755474755500755603854184
:10398D0057854258854359D001D002125B0DAF4B7C
:10399D00AE4AAD49AC4878011243678F4B8E4A8DC4
:1039AD00498C480547E54770930546808F900099EF
:1039BD00E0FCA3E0FDA3E0FEA3E0F54B8E4A8D49AC
:1039CD008C48E4F546F547900068E0543FFFC3E5A9
:1039DD00479FE54694004003023CA7E54B5401FF89
:1039ED00E4FEFDFCEF600FC002C00175520175537E
:1039FD0000755474800DC002C001755201755300DD
:103A0D007554717555007556038541578542588516
:103A1D004359D001D002125B0DAF4BAE4AAD49AC4C
:103A2D004878011243678F4B8E4A8D498C48054764
:103A3D00E54770930546808F900095E0FCA3E0FD6F
:103A4D00A3E0FEA3E0F54B8E4A8D498C48E4F54684
:103A5D00F547900067E0543FFFC3E5479FE5469467
:103A6D00004003023CA7E54B5401FFE4FEFDFCEFD3
:103A7D00600FC002C00175520175530075547180FD
:103A8D000DC002C001755201755300755474755502
:103A9D0000755603854157854258854359D001D04D
:103AAD0002125B0DAF4BAE4AAD49AC4878011243E3
:103ABD00678F4B8E4A8D498C480547E547709305B6
:103ACD0046808F900095E0FCA3E0FDA3E0FEA3E00F
:103ADD00F54B8E4A8D498C48E4F546F547900067C5
:103AED00E0543FFFC3E5479FE54694004003023C89
:103AFD00A7E54B5401FFE4FEFDFCEF600FC002C0D3
:103B0D0001755201755300755474800DC002C001CA
:103B1D0075520175530075547175550075560385B1
:103B2D004157854258854359D001D002125B0DAFE4
:103B3D004BAE4AAD49AC4878011243678F4B8E4A64
:103B4D008D498C480547E54770930546808FC00227
:103B5D00C00175520175530075547D75550075562C
:103B6D0001023C1890008EE02456F582E43400F5F5
:103B7D0083E030E00FC002C001755201755300752E
:103B8D005471800DC002C0017552017553007554FA
:103B9D0074755500755603807290008EE02456F5AD
:103BAD0082E43400F583E030E10FC002C0017552AC
:103BBD0001755300755471800DC002C0017552011D
:103BCD00755300755474755500755603803DC002CC
:103BDD00C0017552017553007554717555007556B8
:103BED00038028C002C001755201755300755474CD
:103BFD007555007556038013C002C00175520175CD
:103C0D00530075547A755500755603854157854295
:103C1D0058854359D001D0028075E4F546F54774B7
:103C2D007A2547F58274003546F583E0FFAE47747B
:103C3D004C2EF8A60790008EE02456F582E4340051
:103C4D00F583E030E023744C2EF8E630E705547F21
:103C5D00F68004E64480F6744C2547F8E630E3051B
:103C6D0054F7F68004E64408F60547E5477002056B
:103C7D00466403454670A875520075530075544C43
:103C8D007555007556038541578542588543591220
:103C9D005B0D80067544007545100545E5457002C0
:053CAD0005440238315E
:013CB20022EF
:0251BC008F471B
:1051BE007BFF7A0079A690004EE075F002A429F9E3
:1051CE00E5F03AFA1241B7AAF0F98B498A4AF54B43
:1051DE0012408AF5487002FF22E54865476016AE18
:1051EE004AAF4B1273C28B498A4A894B12408AF5D9
:1051FE004870E6FF22E4F54CC3E54C942674809487
:10520E00805023AB49054BE54BAA4A7002054A1460
:10521E00F912408AFF7463254CF582E43400F5835D
:10522E00EFF0054C80D2E4F9900064E0540F29F9B8
:10523E00E0C4540F29F9900066E0540329F9E013F5
:10524E0013540329F9E0C4540329F9E0C413135489
:10525E000329240AF92463F582E43400F583E0FD82
:10526E007C0019746329F582E43400F583E0FEE4D2
:10527E002DFFEC3E900087F0A3EFF019746329F533
:10528E0082E43400F583E0FD19746329F582E43479
:10529E0000F583E0FEE42DFFEC3E900085F0A3EFD9
:1052AE00F0900064E0540FF548E4F54CE54CC395DE
:1052BE0048502919746329F582E43400F583E0FF20
:1052CE00E54CFDE548C39DFDE49400FC747D2DF591
:1052DE008274003CF583EFF0054C80D085484CC3BA
:1052EE00E54C9407748094805011747E254CF582A1
:1052FE00E43400F583E4F0054C80E419746329F579
:10530E0082E43400F583E090007DF0900066E05476
:10531E0003F548E4F54CE54CC395485029197463E0
:10532E0029F582E43400F583E0FFE54CFDE548C342
:10533E009DFDE49400FC74792DF58274003CF58398
:10534E00EFF0054C80D085484CC3E54C9403748037
:10535E0094805011747A254CF582E43400F583E480
:10536E00F0054C80E4900066E013135403F548E416
:10537E00F54CE54CC39548502919746329F582E420
:10538E003400F583E0FFE54CFDE548C39DFDE49454
:10539E0000FC74762DF58274003CF583EFF0054C1D
:1053AE0080D085484CC3E54C940374809480501192
:1053BE007477254CF582E43400F583E4F0054C80D7
:1053CE00E4900066E0C45403F548E4F54CE54CC3A4
:1053DE009548502919746329F582E43400F583E069
:1053EE00FFE54CFDE548C39DFDE49400FC74732D70
:1053FE00F58274003CF583EFF0054C80D085484C67
:10540E00C3E54C94037480948050117474254CF54C
:10541E0082E43400F583E4F0054C80E4900066E00D
:10542E00C413135403F548E4F54CE54CC3954850AA
:10543E002919746329F582E43400F583E0FFE54C05
:10544E00FDE548C39DFDE49400FC74702DF5827457
:10545E00003CF583EFF0054C80D085484CC3E54CFD
:10546E0094037480948050117471254CF582E43449
:10547E0000F583E4F0054C80E4900064E0C4540F22
:10548E00F548E4F54CE54CC3954850291974632949
:10549E00F582E43400F583E0FFE54CFDE548C39D5D
:1054AE00FDE49400FC74682DF58274003CF583EFE6
:1054BE00F0054C80D085484CC3E54C94087480941C
:1054CE008050127469254CF582E43400F58374FF24
:0754DE00F0054C80E37F01A3
:0154E50022A4
:0473C2008F828E83A5
:1073C600E4A393FE540FFFEEC4540F2FFFA3A3E4D0
:1073D60093FE54032FFFEE131354032FFFEEC454F2
:1073E600032FFFEEC4131354032F2408FFE433FEC8
:0F73F600EF2582F582EE3583F583FAA9827BFFBE
:017405002264
:0647FE008B388A39893A6C
:10480400126E3A8F43EF645A7002FF227866760084
:104814000876000876007402253AF53AE43539F54D
:1048240039AB38FAA93A12408A7E0029F9EE3A786F
:1048340063A60308F608A6017401253AF53AE4359F
:1048440039F539AB38FAA93A12408AFF1251BCEF54
:104854007002FF227401253AF53AE43539F539AB93
:1048640038FAA93A12408A900094F07401253AF576
:104874003AE43539F539900065E020E52AAA39A9EA
:104884003A8B448A458946126876900068E0543F22
:104894002407FFE433FEEF7803CEC313CE13D8F915
:1048A400253AF53AEE8027AB38AA39A93A788AA690
:1048B4000308A60208A6011241B7AEF0AA0678665C
:1048C40076FF08A60208F67402253AF53AE435396B
:1048D400F539900067E0C413135403FFE0543F2FED
:1048E400FFE433FEA3E0FDC4131354037C002FF54F
:1048F4003CEC3EF53BE53C2407FFE4353BFEEF781A
:1049040003CEC313CE13D8F9F53C8E3B900051E08F
:1049140020E003024A0C7BFF7A5E79CE12408AFFC4
:10492400900006E0FE6F6008EE64056003024A0230
:10493400853C417BFF7A5E79CF90004EE029F9E413
:104944003AFA12408AF542E5418542F0A4F54178ED
:1049540063860308E6FA08E6F9C0038A8389827E3F
:1049640000E53A2541F9EE3539FAC3D0E0E99582FC
:10497400EA95834003024A02AE3BAF3CAD427C0061
:104984001241048E3B8F3CEF253AF53AEE3539F56A
:1049940039AB38FAA93A8B44F545894612438D90D0
:1049A40000951243C7C3E4953CFFE4953BFEEF2515
:1049B4003AF53AEE3539F5397B017A007995126882
:1049C40085900095E0FCA3E0FDA3E0FEA3E0FF8F4B
:1049D40041787E76FF08765E0876C990004EE02620
:1049E400F618E436F618860308E6FA08E6F91240E3
:1049F4008A65417022AE3BAF3CAD43FC8012AE3BB6
:104A0400AF3CAD437C008008AE3BAF3CAD437C0083
:104A14001241048E3B8F3CE53C253AF53AE53B35A3
:104A240039F539786308E6FA08E6F98A838982C396
:104A3400E53A9582E539958340037F0022AB38AA95
:104A440039A93A8B448A45894612438D90009512C0
:104A540043C77B017A007995126885900095A3A3DA
:104A6400A3E0FF8F41787E76FF08765E0876C990D2
:104A7400004EE026F618E436F618860308E6FA082F
:104A8400E6F912408AB541037F002278668603085E
:104A9400E6FA08E64A4B7003024B56900095E0FC98
:104AA400A3E0FDA3E0FEA3E0F5408E3F8D3E8C3DE8
:104AB400AF40AE3FAD3EAC3D900067E0543FF9F8E7
:104AC4001243678F408E3F8D3E8C3DA3E0C4131389
:104AD4005403FF900067E0C4131354032FFFE4331F
:104AE400FE74A02FF582745F3EF583E493FFE540E6
:104AF4005FF540E4F53FF53EF53DAB40AA3FA93EE6
:104B0400A83DC000C001C002C003900068E0543F4B
:104B14002407FFE433FE3395E0FDFCE47B08FAF957
:104B2400F81242C4D003D002D001D0001242398F0F
:104B3400408E3F8D3E8C3D7868EF26F618EE36F6B3
:104B440018860308E6FA08E6F98B448A45F5461206
:044B540068767F01FF
:014B5800223A
:0F68760012438D9000991243C77B017A007999E4
:10688500E4F54AF549F548F54712438D7818124362
:1068950067E54A4FF54AE5494EF549E5484DF5485E
:1068A500E5474CF54712438D7808124367E54AF5ED
:1068B5004AE5494EF549E548F548E547F5471243A8
:1068C5008D780812437AE54AF54AE549F549E548E0
:1068D5004DF548E547F54712438D781812437AE59B
:1068E5004A4FF54AE5494EF549E5484DF548E5472E
:0D68F5004CF547AF4AAE49AD48FC0243AD3B
:046D6200AD07AC06C7
:106D660090004EE075F002A424B6F582E5F03400FA
:106D7600F583E493FE740193AA06F97BFF8B388AA8
:106D860039F53A12760CEF4E7004FBFAF922EF6DE4
:106D96007002EE6C602B7402253AF53AE43539F54B
:106DA60039AB38FAA93A12408AFF7E00253AF53AFD
:106DB600EE3539F539FAA93A12760CEF4E70CF80D6
:076DC60000AB38AA39A93A1D
:016DCD0022A3
:1069020090005A74FFF09002FBE014602504703985
:1069120090000FE0FFA3E090009FCFF0A3EFF09074
:106922000013E09002DDF090009FA3E0900093F04E
:106932008017900011E0FFA3E090009FCFF0A3EF3B
:10694200F0900014E09002DDF09002DDE090008D06
:10695200F090009FE0FFA3E09002D8CFF0A3EFF009
:10696200E490004DF0752201752300752407FFEFB6
:10697200C39404748094805012AB22AA23A9248F5A
:0B69820082758300E41240E20F80E405
:01698D0022E7
:1060CA00E4900007F0A3F0A3F0A3F0900011E0FE23
:1060DA00A3E0FBAA069002FBE0700890000FE0FA2A
:1060EA00A3E0FB7C007D64AF03AE02124116900070
:1060FA0007EFF07C007D0AAF03AE021241167C0066
:10610A007D0A124116A3EDF0AE02AF037C007D0AB0
:10611A00124116A3EDF0E4FF12797C7F077E00128C
:10612A007734900007E0F530E530700CF5367537B6
:10613A00057B05FA7D0A800D7536007537057B05E6
:10614A007A00AD30E4FF12767BE4FF12797C7F1788
:10615A007E00127734900008E0F530E530700CF5D7
:10616A00367537057B05FA7D0A800D753600753759
:10617A00057B057A00AD30E4FF12767BE4FF1279E5
:10618A007C7F177E00127734900009E0F530E53005
:10619A00700CF5367537057B05FA7D0A800D753664
:1061AA00007537057B057A00AD30E4FF12767BE493
:0461BA00FF02797CEB
:1066B6009000011240A375F00AA4FDACF012408AC6
:1066C60075F064A42DFFE5F03CFE9000021240A395
:1066D6007C002FF532EC3EF5319002DDE0FF70399B
:1066E600C3E5329401E5319400402ED3E53294326D
:1066F600E5319400502390009FE531F0A3E532F098
:106706009002D8E531F0A3E532F090008DEFF090DD
:10671600009FA3E0900093802BAF32AE31126D62E2
:1067260012760CEF4E7002FF2290009FE531F0A327
:10673600E532F09002D8E531F0A3E532F09002DDC3
:07674600E090008DF07F01DF
:01674D002229
:107143007880740226F618E436F618860308E6FA01
:1071530008E6F912408AFF90009FE4F0A3EFF09055
:10716300009FE0FEA3E0900018F026F618EE36F636
:1071730018860308E6FA08E6F912760C90009FEEEB
:10718300F0A3EFF04E700B1275E690009FEEF0A3A4
:03719300EFF022F8
:1064190090009FE0F530A3E0F5311275E690009FFA
:10642900E06E7003A3E06F705690004EE075F002C5
:10643900A424B6F582E5F03400F583E493FE7401F3
:1064490093AA06787E76FF08A60208F67880740279
:1064590026F618E436F618860308E6FA08E6F9126D
:10646900408AFF7E00FD26F618EE36F618860308E8
:10647900E6FA08E6F912760CEF4E70D0ED801312A9
:10648900714390009FE0B530F6A3E0B531F190007B
:1064990018E0FF787E860308E6FA08E6C39FF9EA62
:1064A9009400FA90FFFE1240A390009FF0A3E4F03D
:1064B90090FFFF1240A3FF90009FE0F0A3E04FF090
:0164C90022B0
:10797C0090005EE0FEF46002AF06EF146009146044
:0B798C000624027002800043800122EC
:1078D00090005EE0FEF46002AF06EF1460091460F1
:0F78E000062402700680005380FE22438001229E
:06767B008F328A348B35CA
:107681008D38D3E538940074809480401CAF321259
:10769100797CAF37AE36127734AF321278D0AF354E
:0976A100AE34127734153880D99B
:0176AA0022BD
:067489008F228A248B25EE
:10748F008D28D3E5289400748094804028AF221271
:10749F00797CAF27AE2612788BEF60037F0122AF86
:1074AF00221278D0AF25AE2412788BEF60037F01C4
:0774BF0022152880CD7F009B
:0174C60022A3
:1072E0008D31EF14601814601714601C14600F14B3
:1072F000602C24057038753600753708802680109C
:10730000753600753710801C75360075370480148B
:107310007536007537047B047A007D02800B753664
:0F7320000075371FE4FBFA7D01AF3112767B2237
:106367008B228A23892490006074FFF012408A24CC
:10637700D56024241B7033AB25AA26A92712408A8F
:1063870024FA600B24057022E4900060F0801B90D3
:1063970000607401F08013AB25AA26A92712408A52
:1063A70024FA70069000607402F0900060E0F460D8
:1063B70008AB25AA26A9278051AB25AA26A927120B
:1063C700408A24D56024241B7033AB22AA23A92436
:1063D70012408A24FA600B24057022E4900060F0D2
:1063E700801B9000607401F08013AB22AA23A924BC
:1063F70012408A24FA70069000607402F0900060E0
:10640700E0F4600DAB22AA23A92412408A90005C15
:02641700F02271
:1054E6009002F3EFF0E490004DF0900007F0A3F087
:1054F600A3F0A3F07F387E01127BC19002DDE0F4B9
:105506007006FD7F020272E09002DDE090004EF030
:1055160090009FE07002A3E070341275E690009F41
:10552600EEF0A3EFF09002F3E0600312641990002E
:105536005A74FFF09002DDE090008DF090009FE03D
:10554600FEA3E0FF9002D8EEF0A3EFF080139000E8
:105556004EE070057F01FE800890009FE0FEA3E00C
:10556600FF126D62787EA60308A60208A6019000C7
:105576009FE0FFA3E0900058CFF0A3EFF090005A11
:10558600E09002E9F09002F3E0603890004EE0709F
:1055960027900093E0C39432748094805005E00411
:1055A600F080069000937401F0900093E0FF900065
:1055B6009FE4F0A3EFF0800312714390005A740148
:1055C600F0803590004EE07027900093E0D3940170
:1055D600748094804005E014F08006900093743245
:1055E600F0900093E0FF90009FE4F0A3EFF08003BB
:1055F600126419E490005AF090005C74FFF0900079
:105606004EE0FF601524FE600304701490000674DB
:1056160001F0900051E004F080069000067406F058
:105626009002F77401F090009FE0FCA3E0FD127079
:105636008DEF600C900006E0640170047F05801A0F
:1056460090004EE0FF90009FE0FCA3E0FD90000676
:10565600E0FB126A2CEF70057F03126DD790005C99
:1056660074FFF09000927401F09002E9E0FFF4609C
:105676001E90005AE06F6017900058E0FFA3E0907C
:1056860002D8CFF0A3EFF09002DDE090008DF0900D
:10569600004EE07007F536753705803690009FE0BE
:1056A600FEA3E0FF9002D8E0B50620A3E0B5071BF5
:1056B6009002DDE0FF90008DE0B5070F75360075AE
:1056C60037027B027A007D0AE4800B753600753757
:0B56D60005E4FBFA7D01FF12767B2249
:0D003E00EF6401700443E1802253E17F2252
:0D004E00EF6401700443E1402253E1BF2242
:0D006600EF6401700443E1082253E1F7222A
:0D7B2F00EF6401700443E1042253E1FB22E6
:0A7B8400AEE25306F0EF42068EE277
:017B8E0022D4
:0F7B040090FFE0E04440F090FFE2E054BFF02239
:046C1300AD07AC0617
:106C1700EC54FCF535753600E4788DF6787BF6088C
:106C2700F6C3E53594FC400BD3E53694FFE5359480
:106C3700FF400C788D76FF787BA60408A60522E432
:106C4700FFFEE5362FFBE5353E8B82F583E4937037
:106C57000D0FBF00010EE4B507E8EEB404E4EF70D2
:106C670003EE6404601875D60FECF5D1EDF5D24349
:0E6C7700D48075D5A575D5F153D4FE43D42035
:016C850022EC
:0A62AE008B358A368937AD07AC0640
:1062B800EC54FCF53A753B00E4788DF6787BF608EB
:1062C800F6C3EC94FC4009D3ED94FFEC94FF400630
:1062D800788D76FF807075D60FE4F538F539ECF5D2
:1062E800D1EDF5D2AB35AA36A93785398285388301
:1062F8001240A3F5D375D48075D5A575D5F153D4BF
:10630800FE43D4100DBD00010C0539E539700205B6
:1063180038B400CAE538B404C5E4F538F539AB3506
:10632800AA36A9378539828538831240A3FFE53B11
:106338002539FDE53A3538FC8D82F583E4936F60A5
:106348000D00788D7602787BA60408A6052205390B
:0E635800E53970020538B400C5E538B404C05C
:016366002214
:04764A008E308F31BE
:10764E00E4FFEFC39536E5356480F8748098501CDE
:10765E00EF7C002531FDEC35308D82F583E49312FD
:0C766E0040D0740129F9E43AFA0F80D6EC
:01767A0022ED
:1078AE008E308F318B328A338934126C13788DE699
:1078BE0060020022AB32AA33A934AF31AE3012626D
:0278CE00AE22E8
:1077F800785E76FC087600EF7B017A00790F6007E7
:107808007F007EFC0278AE7535007536087F007EF5
:05781800FC12764A227B
:107A4500127618900018E0FF900015F0EFF4A3F0FF
:057A55007F010277F83B
:047BD20002105FB787
:10008600E490008EF0900013E090004EF090000F88
:0D009600E0FFA3E090009FCFF0A3EFF02269
:0A7B9A00E49002FBF090008EF02250
:107A6F00E490008EF090004E7403F090009FE4F0CD
:047A7F00A304F0224A
:0A7BA4009002FBEFF090008EF0223B
:0E7B13001200869000067433126DCE026F6A67
:0E757B00A3F09002FAE531F0900006F07F01D7
:1075890090005DEFF090005C74FFF012728F900034
:1075990050E0600D90005DE0FF900091E0C39F40D6
:0975A900F3126F6AE4FF02797C21
:106FCB008F3090005C74FFF012728F900050E06075
:106FDB0047E53014FF900091E0C39F40F49002EB23
:106FEB00E090005CF07B017A0279EB125C4190023D
:106FFB00F7E06401700C9002EBE0FF90005CE06F37
:10700B0060E3900050E060109002DA7401F090029F
:10701B00DAE0640270F88000126F6AE4FF12797C88
:01702B002242
:106A1A0090004EE0FF90009FE0FCA3E0FD9000068E
:026A2A00E0FB8F
:106A2C008B31EF64017063ED64A44C705D90008E4B
:106A3C0004F090004EF090009FE4F0A374A5F09049
:106A4C000061E4F074A512757B9000A1E07004FF66
:106A5C001278D07F147E0F126F0890008E7401F0A4
:106A6C0090004EF090009FE4F0A374ABF0900061A6
:106A7C00E4F074AB12757B90009FE4F0A374A4F067
:0D6A8C00E4900061F0A3F07F01227F002262
:1075B200127B8F9000A9E07002A3E060247B017A25
:1075C2000279EB125C419000A9E07002A3E0700323
:1075D2007F01229002F7E0640260D890005C74FFA1
:0475E200F07F002214
:1061BE007E1575223F752315A9077D22EDC39432F6
:1061CE00748094805064E930E023EE2400FBE434C4
:1061DE0080FAAC050D75F002ECA424B6F582E5F05C
:1061EE003400F583EAF0A3EBF0E5228021EE2400E3
:1061FE00FBE43480FAAC050D75F002ECA424B6F580
:10620E0082E5F03400F583EAF0A3EBF0E523FB75AD
:10621E00F002EDA424B6F582E5F03400F583E4F047
:10622E00A3EBF0E9C313F90D8092EFC4540FFF7D79
:10623E003AEDC39442748094805064EF30E023EEC4
:10624E002400FBE43480FAAC050D75F002ECA424B6
:10625E00B6F582E5F03400F583EAF0A3EBF0E52322
:10626E008021EE2400FBE43480FAAC050D75F002BB
:10627E00ECA424B6F582E5F03400F583EAF0A3EB46
:10628E00F0E522FB75F002EDA424B6F582E5F034BC
:0F629E0000F583E4F0A3EBF0EFC313FF0D809244
:0162AD0022CE
:10737C00127A2F1276DA127A6F9000067406F012D7
:10738C00445F9000507401F0905FBCE493FF126175
:10739C00BE9002E874FFF090005D7403F01259B7D0
:1073AC00900050E0600D90005DE0FF900091E0C314
:0673BC009F40F3026F6A1E
:1079CD0012737C90005C74FFF07536007537027B86
:0A79DD00027A007D03E4FF02767BCE
:10732F00900050E0600E9002DA7401F09002DAE003
:10733F00640270F8126F6AE4FF12797C1278671298
:10734F007A83127A6F905FBBE493900006126DCE32
:10735F00126F6AE49002DEF0900055F0120086E49E
:0D736F009002EBF07F0AFE127734027BD70C
:10661C009002DEE06032127A6F90005C74FFF090B2
:10662C0002EBE0900006F07FFF126DD790005C74D7
:10663C00FFF0851182851083740493FF9002EBE0C8
:10664C00FEEF6E706402732F900055E0FFD394043C
:10665C00748094805053E5112FF582E43510F58346
:10666C00E493FF9002EBE0FEEFB50608900055E0D6
:10667C0004F08024900055E02511F582E43510F5E6
:10668C0083E58224FFF582E58334FFF583E4936E82
:10669C00600690005574FFF0900055E0640470099A
:0966AC001279CD9002DE7401F0B8
:0166B50022C2
:10702C009000A5E0702790008EF09002F6F0900290
:10703C00EBE0FF640C601BEF640D6016EF640E60F8
:10704C0011EF640F600CEF641060078000E4900097
:10705C00A1F090008EE02413F582E43400F583E077
:10706C0090004EF09002EBE075F003A424D3F5826F
:10707C00E5F0345EF583740193FA740293F90244DB
:01708C000DF6
:104B59007B017A0279EB125C419000A5E0600302C7
:104B69004E6D9002F7E06003024C5A900054E060E9
:104B790024900069E064FE701CA3E06405701612BD
:104B89006F6A90005CE09002EBF090005C126DD2CD
:104B9900E4900054F0C2ABC28E9002F6E090008E11
:104BA900F090005CE0F52174FFF0E49002DBF090F6
:104BB9000050E060119002DA7401F09002DAE064CA
:104BC9000270F8126F6A9000A1E06008E4FF1278A1
:104BD900D0024B59E4FF12797C127961EF6003022C
:104BE9004B59AF211274069002E4E0701F9002DF66
:104BF900E0640270177F02FE12788BEF6009900261
:104C0900E47401F0024B59127B13802D9002E4E009
:104C190070279002DFE06401701FF5267527057B78
:104C290005FA7D0AFF127489EF600E9002E474019F
:104C3900F0E4FF12797C024B599002E47401F012FE
:104C490070ED127B491277D2127A1712781D024B36
:104C5900599002F7E06401706C9002DBE0602590E6
:104C6900005CE0FFF4601D9002EBE0FD640C600F56
:104C7900ED640D600AED640E6005ED640F7005903A
:104C890002EBEFF090005CE0F4701490008EE0907D
:104C990002F6F012661C9002DEE06026024B599083
:104CA900005CE0FF9002EBE06F6017900050E0605D
:104CB900119002DA7401F09002DAE0640270F812DD
:104CC9006F6A024E829002F7E064026003024DA609
:104CD9007525017526027527EC7B017A0279EB129D
:104CE9007449EF6017900050E0600E9002DA740189
:104CF900F09002DAE0640270F8024E37126F6AE44B
:104D0900FF12797C9002F6E090008EF090005C74BE
:104D1900FFF07525017526027527EC7B017A02796A
:104D2900EB126367900060E014601E146043240274
:104D39006003024E647F1F7E001275B2EF7003029A
:104D49004B597F01127BA480107F1F7E001275B220
:104D5900EF7003024B59127B9A9000A57401F0126F
:104D690069027F387E01127B6EE4FDFF1272E080DA
:104D7900267F4D7E001275B2EF7003024B591278EF
:104D8900677536007537047B047A007D03E4FF12EA
:104D9900767BE4FF12797C127B56024B599002F71D
:104DA900E0640370467525017526027527EC7528A0
:104DB90001752902752AED7B017A0279EB12719648
:104DC900EF6016900050E0600E9002DA7401F090E6
:104DD90002DAE0640270F88055126F6AE4FF127912
:104DE9007C9002F6E090008EF080709002F7E0640B
:104DF9000470587525017526027527EC752801750B
:104E09002902752AED752B01752C02752DEE7B0192
:104E19007A0279EB126EA2EF601F900050E0600EEB
:104E29009002DA7401F09002DAE0640270F89002FC
:104E3900F6E090008EF0024B59126F6AE4FF127986
:104E49007C9002F6E090008EF08010126F6AE4FF09
:104E590012797C9002F6E090008EF090005C74FF6D
:104E6900F0024B599002E0E07002A3E06011900259
:104E7900F7E064016003024B5912702C024B59127E
:054E89007A83024B5981
:10761800E4FF75300175310075320FFEEEC3940634
:10762800748094805016AB300532E532AA3170026E
:10763800053114F912408A2FFF0E80E0900018EFF0
:01764800F051
:01764900221E
:017C7A0022E7
:096DCE00F09002E874FFF07F016F
:106DD7008F31900006E0FF9002E8E06F605490006A
:106DE7005DE531F06401701E12728F900050E06013
:106DF7000D90005DE0FF900091E0C39F40F3126F9C
:106E07006AE4FF02797CE531F4700302728FC3E50F
:106E170031940274809480401912728F900050E070
:106E2700600D90005DE0FF900091E0C39F40F3127A
:036E37006F6A225D
:107A8300E49000A5F0FF12797C127B56E49002E0AB
:047A9300F0A3F0224A
:0A7BAE007F387E01127BC1027B5676
:107A5A00E4FF12797C127A45E4FD7F011272E0128A
:057A6A007A83027B5647
:1079E70090009FE0FFA3E0900011CFF0A3EFF0908D
:0879F70002DDE0900014F02213
:037BDB000279E745
:1079FF0090009FE0FFA3E090000FCFF0A3EFF09077
:087A0F0002DDE0900013F022FB
:037BDE000279FF2A
:107997009002FBE0146008047005127BDE8003127E
:0B79A7007BDB90005C74FFF0027A5A5A
:105D70008F309000A5E0FF6401600DEF64026008C1
:105D8000EF64036003025E939000A57402F0E49058
:105D90000092F090004DE0FF64026003025E6474C4
:105DA000072FF582E43400F583E530F09002DDE062
:105DB000FFF4600AD3EF940274809480400AE4FDFB
:105DC0007F021272E0025E539002DDE090004EF01E
:105DD0007B017A0079071266B6EF607090005C7400
:105DE000FFF090004EE0FF600F24FE600304700E91
:105DF0009000067401F080069000067406F0900092
:105E000051E004F09002F77401F090009FE0FCA3D1
:105E1000E0FD12708DEF600C900006E064017004EC
:105E20007F058008126A1AEF70057F03126DD79004
:105E3000005C74FFF09000927401F07536007537C5
:105E400003E4FBFA7D01FF12767B8007E4FD7F020D
:105E50001272E0E490004DF0900007F0A3F0A3F080
:105E6000A3F0802C90004DE02407F582E43400F587
:105E700083E530F07F387E01127BC190004DE00455
:105E8000F0753600753703E4FBFA7D01FF12767B6F
:075E9000027B56127A832207
:107786009002EBE090005CF07B017A0279EB125CF0
:10779600419002F7E06401700C9002EBE0FF90006C
:0677A6005CE06F60E322CD
:1074490012408A24F424FC5002801AAB25AA26A9EA
:107459002712408A24F424FC50028007E49000603B
:10746900F08008800090006074FFF0900060E06098
:1074790007E49002DBF0FF229002DB7401F0FF22A7
:1071960012408A24F424FC5002802DAB25AA26A98D
:1071A6002712408A24F424FC5002801AAB28AA290C
:1071B600A92A12408A24F424FC50028007E4900095
:1071C60060F0800A8002800090006074FFF09000FA
:1071D60060E06007E49002DBF0FF229002DB7401BE
:0371E600F0FF2295
:106EA20012408A24F424FC50028040AB25AA26A971
:106EB2002712408A24F424FC5002802DAB28AA29F0
:106EC200A92A12408A24F424FC5002801AAB2BAA6D
:106ED2002CA92D12408A24F424FC50028007E4904D
:106EE2000060F0800C80048002800090006074FFDB
:106EF200F0900060E06007E49002DBF0FF22900275
:066F0200DB7401F0FF2228
:1064CA009000A5E0700D9002EBE0900006F07FFFCF
:1064DA00026DD79000A5E0FF64026008EF640360D4
:1064EA00030265739002DDE06002807D9002EBE0BA
:1064FA00FF24DF6069241B70689002DDE090004E83
:10650A00F0900006EFF090005C74FFF0900092E0CB
:10651A0060057FFF126DD7127786900050E0600EFB
:10652A009002DA7401F09002DAE0640270F8126FF5
:10653A006A9002EBE090005CF0E490004DF090006D
:10654A0007F0A3F0A3F0A3F07F387E01127BC17598
:10655A003600753703E4FBFA7D01FF02767B027A87
:0D656A008390005C74FFF08000127BAE2275
:105FBD009002EBE0FF900006F09000A5E07055EF29
:105FCD0024FE6025146022146004240370419000A7
:105FDD004EE0FF900011E0FCA3E0FD9002EBE0FB32
:105FED00126A2CEF602902778690004EE0FF900038
:105FFD0011E0FCA3E0FD9002EBE0FB126A2CEF60D8
:10600D000CE4FF1278D07F637E0C026F0880007F56
:10601D00FF026DD79000A5E0FF64026008EF6403F6
:10602D0060030260C69002DDE0FF64016008EF646A
:10603D000260030260C69002EBE0FF24DF606F2474
:10604D0020706E9002DDE090004EF0900006EFF0B3
:10605D0090005C74FFF0900092E0600B126A1AEFF2
:10606D0070057FFF126DD7127786900050E0600E9D
:10607D009002DA7401F09002DAE0640270F8126FA7
:10608D006A9002EBE090005CF0E490004DF090001F
:10609D0007F0A3F0A3F0A3F07F387E01127BC1754A
:1060AD003600753703E4FBFA7D01FF02767B027A39
:0D60BD008390005C74FFF08000127BAE2227
:0D7B3C009000A5E06003025D701264CA2293
:05000600E4FF027B3C59
:05000E007F01027B3CB4
:050016007F02027B3CAB
:05001E007F03027B3CA2
:050026007F04027B3C99
:05002E007F05027B3C90
:050036007F06027B3C87
:05005E007F07027B3C5E
:050076007F08027B3C45
:05007E007F09027B3C3C
:1074C7009000A5E06401700D7403F09002EBE06496
:1074D7000A7022801C9000A5E0FF64036005EF643A
:1074E7000270179000A57403F09002EBE0640A7035
:0E74F700047F018002E4FF0254E61264CA2200
:037BE1000274C764
:037BE4000274C761
:107AD0009000A5E0640170061260CA027A83126405
:027AE000CA22B8
:106B18009000A5E070749000A1E0606C900011E016
:106B28007002A3E0606490008E7401F0900011E0A0
:106B3800FFA3E090009FCFF0A3EFF0900014E09047
:106B4800004EF09002EBE0900006F0E4FF12797C32
:106B5800126A1AEF60269002EBE0FF640C600FEFF8
:106B6800640D600AEF640E6005EF640F70097F2CF6
:106B78007E1A126F08800A12778680057FFF126DD1
:0E6B8800D77F9A7E00027BB880001264CA227A
:10775E009000A5E0FF6401600AEF64026005EF642B
:10776E0003700C900092E06003027997027A831204
:08777E006B18E49000A1F02259
:106577009000A5E0600302661890005CE0F46003F9
:1065870002661B900051E004F090008E7401F090B9
:106597000011E0FFA3E090009FCFF0A3EFF0900081
:1065A70014E090004EF09000067401F090004EE069
:1065B700FF90009FE0FCA3E0FD12708DEF60197F54
:1065C70005126FCB90005CE090000BF09002EBF0AF
:1065D70090005C74FFF0800B126A1AEF70057F035E
:1065E7001275897F827E46126F08E490008EF090C4
:1065F700000FE0FFA3E090009FCFF0A3EFF0900023
:1066070013E090004EF09000067406F07F020275CA
:05661700891264CA2293
:1076AB009002EBE0FF90005CE06F6006900051E011
:1076BB0004F09000A5E0701490008E04F0E0241309
:0F76CB00F582E43400F583E090004EF0025FBDDD
:1078EF009000A5E0701490008E04F0E02413F58250
:0D78FF00E43400F583E090004EF0025FBD20
:10790C009000A5E0701490008E04F0E02413F58232
:0D791C00E43400F583E090004EF0025FBD02
:107505009000A5E0701490008E04F0E02413F5823D
:10751500E43400F583E090004EF0125FBD9000A1C9
:10752500E060077F9A7E00027BB89000A17401F0AD
:0D7535007F9A7E00127B79E4FF1278D0224D
:037BE7000264CA6B
:037BEA00026B1813
:037BED00026B1810
:037BF000026B180D
:037BF300026B180A
:037BF6000264CA5C
:037BF9000264CA59
:037BFC000264CA56
:037BFF000264CA53
:037C02000264CA4F
:037C05000264CA4C
:037C08000264CA49
:037C0B000264CA46
:037C0E000264CA43
:037C11000264CA40
:037C14000264CA3D
:037C17000264CA3A
:037C1A000264CA37
:037C1D000264CA34
:037C20000264CA31
:037C23000264CA2E
:037C26000264CA2B
:037C29000264CA28
:037C2C000264CA25
:037C2F000264CA22
:037C32000264CA1F
:037C35000264CA1C
:037C38000264CA19
:037C3B000264CA16
:037C3E000264CA13
:037C41000264CA10
:1077AC0090FFAFE4F090FFA274C1F0A37401F090CD
:1077BC00FFA0E04408F0127945C20012723C7F0130
:0677CC00127542027AE290
:1077D20090FFDCE074FFF0A3E0E4F0A3E05498F043
:1077E20090FFAAE0543FF090FFDFE04467F090FF83
:0677F200ABE044C0F022F0
:10781D0090FFDCE0E4F0A3E0E4F0A3E05498F090F6
:10782D00FFAAE0543FF090FFDFE05498F090FFABDB
:05783D00E0543FF022C1
:107945007F0112003EE4FF12004EE4FF1200667F45
:0C79550001127B84127B04E4FF027B2FF4
:0C7B6200E4F584F5EB75845375EBAC2260
:107AE20075A58475A6807F017E0012773475AF89F3
:017AF2002271
:0D7B4900C2AFE4F5A8F5A9F5AA43AA4022B1
:10770800E4F59075FD5575ED5575A0677580C075E4
:10771800FE6975EE6A75FCA543800175EC5675B077
:0C772800FE75EFAA90FFEA74A9F00022A1
:1070ED00E4900050F0900092F09002DA7402F0906B
:1070FD00005C74FFF090005EF0E4900054F090029C
:10710D00DBF090006074FFF0900006F09002E8F064
:10711D00E49000A1F0C2ABC28E53A09853803F43C0
:10712D008001FF12003E53B0FEC2A9C28CC2ABC299
:06713D008EC2ADC2CA22A1
:106B9600752303E4F524127618900015E0FF9000A3
:106BA60018E0B50709F4FF900016E06F602CE523A6
:106BB6006021E4FF1277F8127618900015E0FF9036
:106BC6000018E0B50709F4FF900016E06F600415A1
:106BD6002380DBE5237003127867C3900010E094EE
:106BE6000190000FE09400400DD3A3E09432900092
:106BF6000FE094004003752401900013E0600375D4
:0C6C06002401E5246006127867127A97DA
:016C1200225F
:10674E00752103E4F522900050F0900092F0900233
:10675E00DA7402F090005C74FFF0E49000A5F09003
:10676E0000A9F0A3F09002E0F0A3F09002F2F090F6
:10677E000055F09002E2F0A3F0900019F090005155
:10678E00F090005E74FFF0E4900054F09002DEF0A2
:10679E009002DBF090000674FFF09002E8F0E490B7
:1067AE0000A1F012792912008690008EE09002F678
:1067BE00F09002E47401F0126B961276DA1279619F
:1067CE00EF70FAF536F5377B02FA7D01FF12767B14
:0567DE00E4FF02797CDC
:10786700E490008EF09002F6F090000FF0A304F081
:10787700900011E4F0A374A4F0E4900013F0A304C3
:04788700F0027A454C
:107ABD0043890190FFCAE04403F0C28DD2A9D28C54
:037ACD00D2AF2213
:107AF30043891090FFCAE04470F0D2ABD28ED2AF6C
:017B0300225F
:10784200C2C9C2C890FFCB7404F090004EE070052C
:1078520075CAF0800375CAFF75CBFF43B820D2AD5D
:05786200D2CAD2AF22E2
:0B7B8F009000A9EEF0A3EFF0027ABD19
:087BCA009002F2EFF0027AF3E1
:0E7B2100C2AF1277AC12770812674E024B59B2
:107A1700D2AF90FFA0E030E30643A62043A68075CF
:087A270095377587020000226B
:03000300027C7B01
:017C7B0032D6
:03000B00026A99ED
:106A9900C0E0C083C082C0D09000A9E07002A3E02A
:106AA900600E9000AAE024FFF09000A9E034FFF006
:106AB9009002E0E07002A3E0600E9002E1E024FFA2
:106AC900F09002E0E034FFF09002D6E07002A3E01B
:106AD900600E9002D7E024FFF09002D6E034FFF078
:106AE9009002F8E07002A3E0600E9002F9E024FF42
:106AF900F09002F8E034FFF09002F8E07002A3E0B1
:0F6B090070049000A1F0D0D0D082D083D0E032C1
:03001300027C7CF0
:017C7C0032D5
:03001B00026CF57F
:106CF500C0E0C0F0C083C082C0D075D000C000C065
:106D050001C002C003C004C005C006C0079000A5AD
:106D1500E0702F9002F2E0600414F08025C2ABC24F
:106D25008E53B0FEE4FF12003E900050E4F0900256
:106D3500DA7402F0E4FF12797C127961EF70FA12CD
:106D45007A2FD007D006D005D004D003D002D001C9
:0D6D5500D000D0D0D082D083D0F0D0E0327A
:03002300027C7DDF
:017C7D0032D4
:1079B20043B00190007EE0640370057F0BFE8004FB
:0B79C2007F017E00126F0853B0FE2210
:03002B00022DD2D1
:102DD200C0E0C0F0C083C082C0D075D0089000654A
:102DE200E020E30302304F900069E064F0600302E8
:102DF2002F03900017E0700E9002DCE06401701463
:102E0200F053B0FE80119002DCE064017009900082
:102E12008FE070031279B29002FDE0FEA3E0FFEEB4
:102E2200547FFC900002E0FAA3E0FBC39FEA9C50AF
:102E320049900052E0FDA3E09002F4CDF0A3EDF042
:102E42009002F0E0FDA3E09000A3CDF0A3EDF0C36B
:102E5200EF9BFFEE9A9002FDF0A3EFF09002DCE010
:102E6200640190008F700404F08002E4F090001777
:102E72007401F09002DCF00232679002FDE0547FB0
:102E8200FAA3E0FB9000A7E0FCA3E0FDAF0BAE0AC3
:102E92001241049002F4EEF0A3EFF090009DE0FCEA
:102EA200A3E0FDAF0BAE0A1241047C007D0A124181
:102EB20016EEC313FCEF13FD9002F4E0C313FEA35E
:102EC200E013FFC3E49FFFE49EFEC3EF9DFFEE9C71
:102ED2009000A3F0A3EFF090008AE475F002124193
:102EE200A1900089E0FBA3E0FAA3E0F91241B7FF49
:102EF2009002FDE5F0F0A3EFF0900017E4F002324B
:102F020067900005E06401700343B0017F017E0019
:102F1200126F0853B0FE9002FDE090000530E70505
:102F22007401F08002E4F0900017E0702190008AB2
:102F320075F0021241A1900089E0FBA3E0FAA3E040
:102F4200F91241B7FF9002FDE5F0F0A3EFF0900017
:102F52004FE064017022F090008A75F0021241A1E4
:102F6200900089E0FBA3E0FAA3E0F91241B7FF90D9
:102F720002FDE5F0F0A3EFF09002FDE0FEA3E0FF1A
:102F8200EE547FFC900002E0FAA3E0FBC39FEA9CB0
:102F92005034900052E0FDA3E09002F4CDF0A3ED96
:102FA200F09002F0E0FDA3E09000A3CDF0A3EDF0DD
:102FB200C3EF9BFFEE9A9002FDF0A3EFF090001793
:102FC2007401F002304C9002FDE0547FFAA3E0FB62
:102FD2009000A7E0FCA3E0FDAF0BAE0A1241049003
:102FE20002F4EEF0A3EFF090009DE0FCA3E0FDAF51
:102FF2000BAE0A1241047C007D0A124116EEC31385
:10300200FCEF13FD9002F4E0C313FEA3E013FFC331
:10301200E49FFFE49EFEC3EF9DFFEE9C9000A3F0B1
:10302200A3EFF090008AE475F0021241A1900089AA
:10303200E0FBA3E0FAA3E0F91241B7FF9002FDE53D
:10304200F0F0A3EFF0900017E4F00232679000690D
:10305200E064F460030231747878860B08E6FA08BB
:10306200E62444F9E43AFA787DE6067E0029F9EE90
:103072003AFA12408A9000A6F0900017E0640170BC
:103082000216F09000A6E0FF64706005EF646F70B6
:10309200089000A67473F080069000A67468F09001
:1030A20000A6E025E0F0E075F07DA4FBAAF07C0329
:1030B2007DE8FFAE0A1241169000A7EEF0A3EFF0F2
:1030C2007C037DE8AF0BAE0A1241167E007F64CF0F
:1030D200CDCFCECCCE12411690009DEEF0A3EFF0F4
:1030E200900002E0FAA3E0FB9000A7E0FEA3E0FF5D
:1030F200AD0BAC0A124104900052EEF0A3EFF07D4A
:103102000A7C00AF0BAE0A12411690009DE0FCA3B0
:10311200E0FD124104EEC313FCEF13FD900052E0F8
:10312200C313FEA3E013FFC3E49FFFE49EFEC3EFBD
:103132009DFFEE9C9002F0F0A3EFF09000A7E0FC60
:10314200A3E0FD7EFF7FFF124116EF24FEFFEE3467
:10315200FF900002F0A3EFF09000A6E0FF75F003ED
:1031620084FEC374FF9EF5E4C3EF9EFFC374FF9F0A
:10317200F5E5900005E06401700543B0018003535A
:10318200B0FE9002FDE0FEA3E0FFEE90000530E706
:10319200057401F08002E4F0EE547FFE900002E03C
:1031A200FCA3E0FDC39FEC9E503C900052E0FFA3C5
:1031B200E09002F4CFF0A3EFF09002F0E0FFA3E082
:1031C2009000A3CFF0A3EFF0C39002FEE09DF09039
:1031D20002FDE09CF0900069E064F4600302326753
:1031E200787D160232679002FDE0547FFAA3E0FB7D
:1031F2009000A7E0FCA3E0FDAF0BAE0A12410490E1
:1032020002F4EEF0A3EFF090009DE0FCA3E0FDAF2E
:103212000BAE0A1241047C007D0A124116EEC31362
:10322200FCEF13FD9002F4E0C313FEA3E013FFC30F
:10323200E49FFFE49EFEC3EF9DFFEE9C9000A3F08F
:10324200A3EFF090008AE475F0021241A190008988
:10325200E0FBA3E0FAA3E0F91241B7FF9002FDE51B
:10326200F0F0A3EFF09000A3E0FCA3E0FDECF5CBBF
:10327200EDF5CA9000ABE0FBA3E0FAA3E0F9C00BC6
:10328200C00AC009900089A3E0FAA3E0F9D3D08272
:10329200D083D0E0E99582EA9583405F9002DA74A8
:1032A20002F0900091E004F0E0D394FE74809480E8
:1032B20040037404F07881860B08E6FA08E6F99078
:1032C2000089EBF0A3EAF0A3E9F07884860B08E624
:1032D200FA08E6F99000ABEBF0A3EAF0A3E9F0906C
:1032E2000089E0FBA3E0FAA3E0F91241B7FF9002E4
:1032F200FDE5F0F0A3EFF0787D76009002FDE0703E
:1033020002A3E070099002DA7402F0126F6AC2CF6F
:0B331200D0D0D082D083D0F0D0E032C9
:03003300027C7ECE
:017C7E0032D3
:03003B00027C7FC5
:017C7F0032D2
:03004B00027C80B4
:017C800032D1
:03005B00027C81A3
:017C810032D0
:03006300027C829A
:017C820032CF
:03007300027C8389
:017C830032CE
:03007B00027C8480
:017C840032CD
:03008300027C8577
:017C850032CC
:0300A300027C8656
:017C860032CB
:105E97000501061B1C1F1E1D070C0A0E100F080DFF
:105EA7000B20092122232425111213141516171864
:105EB70019261A2728292A2B2C2D2E2F3031320468
:105EC7000203EDEDEDED5A0100010100FF7C7AFFC1
:105ED70076ABFF78EFFF790CFF7505FF6577FF7BE2
:105EE700F6FF7BF9FF7BFCFF7BFFFF7BE1FF7BE49A
:105EF700FF7BEAFF7BEDFF7BF0FF7BF3FF775EFF26
:105F0700000EFF0016FF001EFF0026FF002EFF00F9
:105F170036FF005EFF0076FF007EFF0006FF7C0273
:105F2700FF7C05FF7C08FF7BE7FF7C0BFF7C0EFFF8
:105F37007C11FF7C14FF7C17FF7C1AFF7C1DFF7C04
:105F470020FF7C23FF7AD0FF7C26FF7C29FF7C2C57
:105F5700FF7C2FFF7C32FF7C35FF7C38FF7C3BFFCB
:105F67007C3EFF7C41FF212EFF7C44FF56E1FF7CF6
:105F770047FF4E8EFF331DFF7C4AFF7C4DFF7C5051
:105F8700FF7C53FF7C56FF7C59FF7C5CFF7C5FFFE7
:105F97007C7701020408102040800103070F1F3F90
:105FA7000A6A037901BC037901BC01BC01BC01BCCD
:065FB700282A292932808E
:10212E00900065E04408F0900085E0F538A3E0F5F6
:10213E00397887860308E6FA08E6F91241B7FFE513
:10214E00F0547F8FF012421A900077E0FF78878666
:10215E000308E6FA08E6F9E48FF01241E278878682
:10216E000308E6FA08E6F91241B7FFE5F0547FFEE0
:10217E00C3E5399FF539E5389EF538740226F61811
:10218E00E436F690007EE0640160030222E19000E6
:10219E0099E0FCA3E0FDA3E0FEA3E0F5378E368DBB
:1021AE00358C34E4F530F531900068E0543FFFC3D0
:1021BE00E5319FE53094005076E5375401FFE4F9A0
:1021CE00EF6011900071E0FF7887860308E6FA0849
:1021DE00E6C98010900074E0FF7887860308E6FA5F
:1021EE0008E6F9E48FF012421A7887860308E6FAB9
:1021FE0008E6F91241B7FFE5F0547FFEC3E5399FBB
:10220E00F539E5389EF538740226F618E436F6AF41
:10221E0037AE36AD35AC3478011243678F378E3614
:10222E008D358C340531E531700205300221B690C2
:10223E000095E0FCA3E0FDA3E0FEA3E0F5378E36AB
:10224E008D358C34E4F530F531900067E0543FFF66
:10225E00C3E5319FE53094004003022D4FE537541E
:10226E0001FFE4F9EF6011900071E0FF78878603BB
:10227E0008E6FA08E6C98010900074E0FF788786B9
:10228E000308E6FA08E6F9E48FF012421A78878618
:10229E000308E6FA08E6F91241B7FFE5F0547FFEAF
:1022AE00C3E5399FF539E5389EF538740226F618E0
:1022BE00E436F6AF37AE36AD35AC3478011243673F
:1022CE008F378E368D358C340531E5317002053001
:1022DE0002225790007EE06402600302272B9000DA
:1022EE0074E0FF7887860308E6FA08E6F9E48FF0D3
:1022FE001241E27887860308E6FA08E6F91241B73A
:10230E00FFE5F0547FFEC3E5399FF539E5389EF5BC
:10231E0038740226F618E436F6900099E0FCA3E035
:10232E00FDA3E0FEA3E0F5378E368D358C34E4F553
:10233E0030F531900068E0543FFFC3E5319FE53042
:10234E0094005076E5375401FFE4F9EF60119000E8
:10235E0071E0FF7887860308E6FA08E6C9801090D8
:10236E000074E0FF7887860308E6FA08E6F9E48F42
:10237E00F012421A7887860308E6FA08E6F9124147
:10238E00B7FFE5F0547FFEC3E5399FF539E5389E7A
:10239E00F538740226F618E436F6AF37AE36AD359C
:1023AE00AC3478011243678F378E368D358C3405F9
:1023BE0031E53170020530022341900095E0FCA317
:1023CE00E0FDA3E0FEA3E0F5378E368D358C34E4C8
:1023DE00F530F531900067E0543FFFC3E5319FE5DE
:1023EE003094005076E5375401FFE4F9EF60119018
:1023FE000071E0FF7887860308E6FA08E6C98010C8
:10240E00900074E0FF7887860308E6FA08E6F9E4A0
:10241E008FF012421A7887860308E6FA08E6F91258
:10242E0041B7FFE5F0547FFEC3E5399FF539E53836
:10243E009EF538740226F618E436F6AF37AE36AD92
:10244E0035AC3478011243678F378E368D358C3428
:10245E000531E531700205300223E290007DE0FF88
:10246E007887860308E6FA08E6F9E48FF012421A36
:10247E007887860308E6FA08E6F91241B7FFE5F019
:10248E00547FFEC3E5399FF539E5389EF538740261
:10249E0026F618E436F618860308E6FA08E6F9E595
:1024AE00388539F012421A788708E6FA08E6AE0245
:1024BE00C394B6FFEE9400FE7C007D0212416B9039
:1024CE0000B0EEF0A3EFF0A3EEF0A3EFF078897476
:1024DE000226F618E436F6900077E0FF1886030819
:1024EE00E6FA08E6F9E48FF01241E2788708E6FA98
:1024FE0008E6AE02C394B6FFEE9400FE7C007D02A9
:10250E0012416B9000B4EEF0A3EFF07887860308CB
:10251E00E6FA08E6F91241B7FFE5F0547FFEC3E58F
:10252E00399FF539E5389EF538740226F618E436EB
:10253E00F6900074E0FF18860308E6FA08E6F9E460
:10254E008FF01241E27887860308E6FA08E6F91260
:10255E0041B7FFE5F0547FFEC3E5399FF539E53805
:10256E009EF538740226F618E436F6900099E0FCD3
:10257E00A3E0FDA3E0FEA3E0F5378E368D358C3457
:10258E00E4F530F531900068E0543FFFC3E5319F2C
:10259E00E53094005076E5375401FFE4F9EF601111
:1025AE00900074E0FF7887860308E6FA08E6C98093
:1025BE0010900071E0FF7887860308E6FA08E6F9C6
:1025CE00E48FF012421A7887860308E6FA08E6F9D5
:1025DE001241B7FFE5F0547FFEC3E5399FF539E5AB
:1025EE00389EF538740226F618E436F6AF37AE3656
:1025FE00AD35AC3478011243678F378E368D358CFE
:10260E00340531E53170020530022593900095E0D6
:10261E00FCA3E0FDA3E0FEA3E0F5378E368D358CEE
:10262E0034E4F530F531900067E0543FFFC3E531F7
:10263E009FE53094005076E5375401FFE4F9EF60E2
:10264E0011900071E0FF7887860308E6FA08E6C964
:10265E008010900074E0FF7887860308E6FA08E69B
:10266E00F9E48FF012421A7887860308E6FA08E634
:10267E00F91241B7FFE5F0547FFEC3E5399FF539F6
:10268E00E5389EF538740226F618E436F6AF37AE06
:10269E0036AD35AC3478011243678F378E368D35B3
:1026AE008C340531E5317002053002263490007D00
:1026BE00E0FF7887860308E6FA08E6F9E48FF01261
:1026CE00421A7887860308E6FA08E6F91241B7FF40
:1026DE00E5F0547FFEC3E5399FF539E5389EF538B0
:1026EE00740226F618E436F618860308E6FA08E6AB
:1026FE00F9E5388539F012421A788708E6FA08E6C5
:10270E00AE02C394B6FFEE9400FE7C007D02124131
:10271E006B9000B0EEF0A3EFF0A3022BC090007E02
:10272E00E064046003022BC4900074E0FF78878697
:10273E000308E6FA08E6F9E48FF01241E27887869C
:10274E000308E6FA08E6F91241B7FFE5F0547FFEFA
:10275E00C3E5399FF539E5389EF538740226F6182B
:10276E00E436F6900099E0FCA3E0FDA3E0FEA3E0C2
:10277E00F5378E368D358C34E4F530F531900068B2
:10278E00E0543FFFC3E5319FE53094005076E537C6
:10279E005401FFE4F9EF6011900071E0FF78878635
:1027AE000308E6FA08E6C98010900074E0FF788707
:1027BE00860308E6FA08E6F9E48FF012421A7887E3
:1027CE00860308E6FA08E6F91241B7FFE5F0547FF2
:1027DE00FEC3E5399FF539E5389EF538740226F6C5
:1027EE0018E436F6AF37AE36AD35AC347801124359
:1027FE00678F378E368D358C340531E53170020595
:10280E003002278B900095E0FCA3E0FDA3E0FEA331
:10281E00E0F5378E368D358C34E4F530F531900099
:10282E0067E0543FFFC3E5319FE53094005076E5F5
:10283E00375401FFE4F9EF6011900071E0FF7887E3
:10284E00860308E6FA08E6C98010900074E0FF7867
:10285E0087860308E6FA08E6F9E48FF012421A7842
:10286E0087860308E6FA08E6F91241B7FFE5F05449
:10287E007FFEC3E5399FF539E5389EF5387402269B
:10288E00F618E436F6AF37AE36AD35AC3478011205
:10289E0043678F378E368D358C340531E5317002B6
:1028AE00053002282C900077E0FF7887860308E633
:1028BE00FA08E6F9E48FF01241E27887860308E61B
:1028CE00FA08E6F91241B7FFE5F0547FFEC3E53989
:1028DE009FF539E5389EF538740226F618E436F67B
:1028EE00900074E0FF18860308E6FA08E6F9E48F14
:1028FE00F01241E27887860308E6FA08E6F91241FB
:10290E00B7FFE5F0547FFEC3E5399FF539E5389EF4
:10291E00F538740226F618E436F618860308E6FA39
:10292E0008E6F9E5388539F012421A788708E6FA92
:10293E0008E6AE02C394B6FFEE9400FE7C007D0264
:10294E0012416B9000B0EEF0A3EFF0A3EEF0A3EF08
:10295E00F07889740226F618E436F6900077E0FFD8
:10296E0018860308E6FA08E6F9E48FF01241E278D9
:10297E0087860308E6FA08E6F91241B7FFE5F05438
:10298E007FFEC3E5399FF539E5389EF5387402268A
:10299E00F618E436F6900074E0FF18860308E6FA9F
:1029AE0008E6F9E48FF01241E27887860308E6FA2A
:1029BE0008E6F91241B7FFE5F0547FFEC3E5399FF3
:1029CE00F539E5389EF538740226F618E436F69099
:1029DE000099E0FCA3E0FDA3E0FEA3E0F5378E3600
:1029EE008D358C34E4F530F531900068E0543FFFBE
:1029FE00C3E5319FE53094005076E5375401FFE48E
:102A0E00F9EF6011900074E0FF7887860308E6FA0C
:102A1E0008E6C98010900071E0FF7887860308E60B
:102A2E00FA08E6F9E48FF012421A7887860308E670
:102A3E00FA08E6F91241B7FFE5F0547FFEC3E53917
:102A4E009FF539E5389EF538740226F618E436F609
:102A5E00AF37AE36AD35AC3478011243678F378E53
:102A6E00368D358C340531E531700205300229F78B
:102A7E00900095E0FCA3E0FDA3E0FEA3E0F5378E09
:102A8E00368D358C34E4F530F531900067E0543FE7
:102A9E00FFC3E5319FE53094005076E5375401FFD2
:102AAE00E4F9EF6011900071E0FF7887860308E685
:102ABE00FA08E6C98010900074E0FF788786030854
:102ACE00E6FA08E6F9E48FF012421A7887860308D0
:102ADE00E6FA08E6F91241B7FFE5F0547FFEC3E5CA
:102AEE00399FF539E5389EF538740226F618E43626
:102AFE00F6AF37AE36AD35AC3478011243678F374B
:102B0E008E368D358C340531E53170020530022A52
:102B1E0098900077E0FF7887860308E6FA08E6F9D2
:102B2E00E48FF01241E27887860308E6FA08E6F9A8
:102B3E001241B7FFE5F0547FFEC3E5399FF539E545
:102B4E00389EF538740226F618E436F6900074E0D6
:102B5E00FF18860308E6FA08E6F9E48FF01241E260
:102B6E007887860308E6FA08E6F91241B7FFE5F022
:102B7E00547FFEC3E5399FF539E5389EF53874026A
:102B8E0026F618E436F618860308E6FA08E6F9E59E
:102B9E00388539F012421A788708E6FA08E6AE024E
:102BAE00C394B6FFEE9400FE7C007D0212416B9042
:102BBE0000B2EE022DCBE4F532F533900099E0FC35
:102BCE00A3E0FDA3E0FEA3E0F5378E368D358C3401
:102BDE00E4F530F531900068E0543FFFC3E5319FD6
:102BEE00E53094004003022C8CE5375401FFE4F9E4
:102BFE00EF6028E53330E011900071E0FF788786B2
:102C0E000308E6FA08E6C98022900073E0FF788791
:102C1E00860308E6FA08E6F9E48010900074E0FFF7
:102C2E007887860308E6FA08E6F9E48FF012421A6E
:102C3E007887860308E6FA08E6F91241B7FFE5F051
:102C4E00547FFEC3E5399FF539E5389EF538740299
:102C5E0026F618E436F6AF37AE36AD35AC3478011D
:102C6E001243678F378E368D358C340533E53370CE
:102C7E000205320531E53170020530022BE390007A
:102C8E0095E0FCA3E0FDA3E0FEA3E0F5378E368DC4
:102C9E00358C34E4F530F531900067E0543FFFC3D6
:102CAE00E5319FE53094004003022D4FE537540186
:102CBE00FFE4F9EF6028E53330E011900071E0FF9A
:102CCE007887860308E6FA08E6C98022900073E04A
:102CDE00FF7887860308E6FA08E6F9E4801090008C
:102CEE0074E0FF7887860308E6FA08E6F9E48FF0C9
:102CFE0012421A7887860308E6FA08E6F91241B7F7
:102D0E00FFE5F0547FFEC3E5399FF539E5389EF5B2
:102D1E0038740226F618E436F6AF37AE36AD35AC5B
:102D2E003478011243678F378E368D358C340533E8
:102D3E00E533700205320531E53170020530022CA3
:102D4E00A690007DE0FF7887860308E6FA08E6F98C
:102D5E00E48FF012421A7887860308E6FA08E6F93D
:102D6E001241B7FFE5F0547FFEC3E5399FF539E513
:102D7E00389EF538740226F618E436F618860308DF
:102D8E00E6FA08E6F9E5388539F012421A7887082E
:102D9E00E6FA08E6AE02C394B6FFEE9400FE7C009F
:102DAE007D0212416B9000B0EEF0A3EFF0E49000C4
:102DBE00B4F0A3F09000B0E0FFA3E0A3CFF0A3EF38
:032DCE00F07F0192
:012DD10022DF
:037C44007F00229C
:1056E100900085E0F534A3E0F5357552017553005E
:1056F10075547775550075560375570075580075C3
:1057010059347887860308E6FA08E6F9125B0D78C2
:1057110087A60308A60208A601900095E0FCA3E075
:10572100FDA3E0FEA3E0F5398E388D378C3690006D
:1057310095A3A3A3EE5480FEEE6008753200753385
:105741000F800675320075330CE4F530F531C3E591
:10575100319533E53095325065E5395401FFE4FE6A
:10576100FDFCEF600B755201755300755471800992
:10577100755201755300755474755500755603754E
:1057810057007558007559347887860308E6FA087A
:10579100E6F9125B0D7887A60308A60208A601AFF9
:1057A10039AE38AD37AC3678011243678F398E3850
:1057B1008D378C360531E5317094053080907887CE
:1057C100860308E6FA08E6F91241B7E5F030E73456
:1057D10078870808740226F9F618E436FAF6C390B9
:1057E10002D4E99582EA9583400A0874FE26F618E8
:1057F10074FF36F67887860308E6FA08E6F9E4F5D9
:10580100F012421A7887860308E6FA08E6F9E534C9
:105811008535F01241E2788708E6FA08E6AE02C360
:1058210094B6FFEE9400FE7C007D0212416B900065
:10583100B0EEF0A3EFF0E49000B4F0A3F09000B06C
:0C584100E0FFA3E0A3CFF0A3EFF07F0195
:01584D002238
:037C47007F002299
:104E8E00E4F540F541F544F5457542687543739078
:104E9E0000AEF0A3E542F078787601087600087649
:104EAE00AE900077E0753000F531AE307804CEA2CA
:104EBE00E713CE13D8F8F5318E3053310775300025
:104ECE00747D2531F58274003530F583E0F53C9024
:104EDE00007AE0753000F531AE307804CEA2E713DB
:104EEE00CE13D8F8F5318E30533107753000747DFE
:104EFE002531F58274003530F583E0F53D9000855F
:104F0E00E0F532A3E0F533900095E0FCA3E0FDA3BD
:104F1E00E0FEA3E0F5378E368D358C34E537F53768
:104F2E00E4F536F535F534A3E0FCA3E0FDA3E0FE91
:104F3E00A3E0FF780812437A8F3B8E3A8D398C3876
:104F4E00E4F53BE53A541FF53AE4F539F538E53723
:104F5E00453BF537E536453AF536E5354539F53510
:104F6E00E5344538F534E4753BFFF53AF539F53857
:104F7E00F530F531E5375401FFE4FEFDFCAB3BAAFD
:104F8E003AA939A838C3124356604DE47FFFFEFD9F
:104F9E00FCA838C312435660267887860308E6FAC3
:104FAE0008E6F91241B7FFE5F0547FFEC3E5339FE3
:104FBE00F533E5329EF532740226F618E436F678AD
:104FCE0087860308E6FA08E6F9748075F000124247
:104FDE001AE4F540F54180340541E5417002054083
:104FEE006401454070267887860308E6FA08E6F9DC
:104FFE001241B7FFE5F0547FFEC3E5339FF533E56D
:10500E00329EF532740226F618E436F6787808E603
:10501E00FA08E62408F9E43AFE788708E6FA08E684
:10502E00AC02C399FFEC9EFE7C007D0212416B8E9A
:10503E003E8F3FE5375401FFEF7887860308602ADD
:10504E00E6FA08E6F9E4853CF01241E27878860348
:10505E0008E6FA08E62444F9E43AFAE9253FF9EAC3
:10506E00353EFAE5421240D08033E6FA08E6F9E41E
:10507E00853DF01241E27878860308E6FA08E624C8
:10508E0044F9E43AFAE9253FF9EA353EFAE54312E6
:10509E0040D0E53D2545F545E43544F544E5375426
:1050AE0001F53BE4F53AF539F538AF37AE36AD35A7
:1050BE00AC3478011243678F378E368D358C3405BC
:1050CE0031E53170020530640D45306003024F82C8
:1050DE007887860308E6FA08E6F91241B7FFE5F08D
:1050EE00547FFEC3E5339FF533E5329EF532AE4471
:1050FE00AF45C3E53D953CFDE49400FC1241048EA2
:10510E00448F45AD3C7C0012416B8E448F45E54586
:10511E002533F533E5443532F5327889740226F6B7
:10512E0018E436F6787808E6FA08E62408F9E43A40
:10513E00FE788708E6FA08E6AC02C399FFEC9EFEFD
:10514E007C007D0212416B8E3E8F3F78788603087D
:10515E00E6FA08E62444F9E43AFAE92FF9EA3EFAC7
:10516E00E5421240D07887860308E6FA08E6F9E5AC
:10517E00328533F012421A788708E6FA08E6AE0254
:10518E00C394B6FFEE9400FE7C007D0212416B903C
:10519E0000B0EEF0A3EFF0E49000B4F0A3F09000B6
:0D51AE00B0E0FFA3E0A3CFF0A3EFF07F017E
:0151BB0022D1
:10331D00900095E0FCA3E0FDA3E0FEA3E0FF781094
:10332D00124367E4F53A8F3BA3E0FCA3E0FDA3E075
:10333D00FEA3E0F5358E348D338C32900095E0FC94
:10334D00A3E0FDA3E0FEA3E0F5398E388D378C3672
:10335D00900068E0543F6410703DA304F0A3742303
:10336D00F0A37445F0A374FFF0900085E0F530A351
:10337D00E0F531E535FFE4FEFDFC9000991243C701
:10338D00E539FFE4FEFDFC9000951243C7900068FF
:10339D00E054C044088043900068E0543F642070BE
:1033AD0043A304F0A37434F0A3745FF0900085E0A0
:1033BD00F530A3E0F531E535FFE534FEE4FDFC9095
:1033CD0000991243C7E539FFE4FEFDFC900095120C
:1033DD0043C7900068E054C04410F0900067E0547B
:1033ED00C04408F0754100754200754330788786FA
:1033FD000308E6FA08E6F9E4FFFE12382D7887A6F1
:10340D000308A60208A6011241B7E5F030E73478AB
:10341D00870808740226F9F618E436FAF6C3900206
:10342D00D4E99582EA9583400A0874FE26F618744D
:10343D00FF36F67887860308E6FA08E6F9E4F5F034
:10344D0012421A7887860308E6FA08E6F9E5308510
:10345D0031F01241E2E53B453A600302357078895F
:10346D00740226F618E436F618860308E6FA08E61E
:10347D00F9748075F00012421A900087E0F530A3C0
:10348D00E0F531900068E0543F6408701FAF35AE31
:10349D0034AD33AC3278081243679000991243C7AC
:1034AD00900099A3A3A3E0FFE4FE8028900068E0BC
:1034BD00543F64107026AF35AE34AD33AC32781056
:1034CD001243679000991243C7900099A3A3E0FEA1
:1034DD00A3E0FFE4FDFC9000991243C7AF39AE386D
:1034ED00AD37AC3678081243679000951243C790FC
:1034FD000095A3A3A3E0FFE4FEFDFC90009512430D
:10350D00C77541007542007543307887860308E61C
:10351D00FA08E6F9E4FFFE12382D7887A60308A60F
:10352D000208A6011241B7E5F030E73478870808A4
:10353D00740226F9F618E436FAF6C39002D4E9952A
:10354D0082EA9583400A0874FE26F61874FF36F653
:10355D007887860308E6FA08E6F9E4F5F012421AD0
:10356D00023685E53B6401453A7003023698E53B2A
:10357D006402453A60030236A17B017A0079B67880
:10358D0087A60308A60208A601748075F0001242F2
:10359D001A900085E0F530A3E0F531900068E05415
:1035AD003F6408701FAF35AE34AD33AC32780812BE
:1035BD0043679000991243C7900099A3A3A3E0FF1E
:1035CD00E4FE8028900068E0543F64107026AF350B
:1035DD00AE34AD33AC32781012436790009912437C
:1035ED00C7900099A3A3E0FEA3E0FFE4FDFC9000CB
:1035FD00991243C7AF39AE38AD37AC3678081243A0
:10360D00679000951243C7900095A3A3A3E0FFE434
:10361D00FEFDFC9000951243C77541007542007583
:10362D0043307887860308E6FA08E6F9E4FFFE12D0
:10363D00382D7887A60308A60208A6011241B7E522
:10364D00F030E73478870808740226F9F618E43666
:10365D00FAF6C39002D4E99582EA9583400A08747C
:10366D00FE26F61874FF36F67887860308E6FA0804
:10367D00E6F9E4F5F012421A7887860308E6FA08AF
:10368D00E6F9E5308531F01241E2E49000B4F0A3A3
:10369D00F00237E0E53B6403453A600302380878F1
:1036AD008708E6FA08E6AE02C394B6FFEE9400FE74
:1036BD007C007D0212416B9000B4EEF0A3EFF07828
:1036CD0089740226F618E436F618860308E6FA0819
:1036DD00E6F9748075F00012421A900087E0F5301B
:1036ED00A3E0F531900068E0543F6408701FAF35DA
:1036FD00AE34AD33AC327808124367900099124363
:10370D00C7900099A3A3A3E0FFE4FE802890006872
:10371D00E0543F64107026AF35AE34AD33AC327823
:10372D00101243679000991243C7900099A3A3E02C
:10373D00FEA3E0FFE4FDFC9000991243C7AF39AE44
:10374D0038AD37AC3678081243679000951243C7F1
:10375D00900095A3A3A3E0FFE4FEFDFC900095125D
:10376D0043C775410075420075433078878603085D
:10377D00E6FA08E6F9E4FFFE12382D7887A603086D
:10378D00A60208A6011241B7E5F030E734788708A4
:10379D0008740226F9F618E436FAF6C39002D4E955
:1037AD009582EA9583400A0874FE26F61874FF3652
:1037BD00F67887860308E6FA08E6F9E4F5F0124292
:1037CD001A7887860308E6FA08E6F9E5308531F0C0
:1037DD001241E2788708E6FA08E6AE02C394B6FF16
:1037ED00EE9400FE7C007D0212416B9000B2EEF073
:1037FD00A3EFF09000B0EEF0A3EFF0AF35AE34AD27
:10380D0033AC329000991243C7AF39AE38AD37ACF7
:0F381D00369000951243C790006974F5F07F0153
:01382C002279
:037C4A007F002296
:037C4D007F002293
:037C50007F002290
:037C53007F00228D
:037C56007F00228A
:037C59007F002287
:037C5C007F002284
:037C5F007F002281
:037C62007F00227E
:037C65007F00227B
:103CB300E4900054F0900085E0F536A3E0F53790EA
:103CC3000077E02401FFE433FE7887860308E6FAF1
:103CD30008E6F9EE8FF01241E27887860308E6FAE8
:103CE30008E6F91241B7FFE5F0547FFEC3E5379FBD
:103CF300F537E5369EF536740226F618E436F69067
:103D03000078E0FF18860308E6FA08E6F9E48FF086
:103D130012421A7887860308E6FA08E6F91241B7D1
:103D2300FFE5F0547FFEC3E5379FF537E5369EF593
:103D330036740226F618E436F6900099E0FCA3E008
:103D4300FDA3E0FEA3E0F5358E348D338C32E4F52C
:103D530030F531900068E0543FFFC3E5319FE53013
:103D630094004003023E3F90007DE02401FFE434D1
:103D730080F97887860308E6FA08E6C98FF01242CD
:103D83001A7887860308E6FA08E6F91241B7FFE5D1
:103D9300F0547FFEC3E5379FF537E5369EF536745D
:103DA3000226F618E436F6E5355403FFE4FEFDFC7F
:103DB3001243D33DD2000000003DD7000000013D77
:103DC300DC000000023DE10000000300003DF6902E
:103DD300007F800D90008180089000808003900018
:103DE30082E0FF7887860308E6FA08E6F9E48FF0B5
:103DF30012421A7887860308E6FA08E6F91241B7F1
:103E0300FFE5F0547FFEC3E5379FF537E5369EF5B2
:103E130036740226F618E436F6AF35AE34AD33AC5D
:103E23003278021243678F358E348D338C327402AD
:103E33002531F531E43530F530023D56900095E0FB
:103E4300FCA3E0FDA3E0FEA3E0F5358E348D338CB7
:103E53003290007EE014603914606B240260030228
:103E63003F149002F7E07020E5355401FFE4FEFDB6
:103E7300FC1243D33E87000000003E89000000018E
:103E830000003F14806D80389000547401F0023FAD
:103E93001490008EE02456F582E43400F583E0307C
:103EA300E06FE5355401FFE4FEFDFC1243D33EC150
:103EB300000000003EC30000000100003F148033F7
:103EC300E53554FE803DE53554FCF535E534F534F0
:103ED300E533F533E532F53290008EE02456F58272
:103EE300E43400F583E0540324FE600D14601024D1
:103EF30002701EE5354401800AE53544028004E57D
:103F0300354403F535E534F534E533F533E532F57A
:103F130032E4F530F531900067E0543FFFC3E531FB
:103F23009FE5309400400302400290007DE02401AD
:103F3300FFE43480F97887860308E6FA08E6C98F38
:103F4300F012421A7887860308E6FA08E6F9124166
:103F5300B7FFE5F0547FFEC3E5379FF537E5369E9F
:103F6300F536740226F618E436F6E5355403FFE415
:103F7300FEFDFC1243D33F95000000003F9A000072
:103F830000013F9F000000023FA400000003000067
:103F93003FB990007F800D90008180089000808061
:103FA30003900082E0FF7887860308E6FA08E6F9C3
:103FB300E48FF012421A7887860308E6FA08E6F9D6
:103FC3001241B7FFE5F0547FFEC3E5379FF537E5B0
:103FD300369EF536740226F618E436F6AF35AE345F
:103FE300AD33AC3278021243678F358E348D338C08
:103FF3003274022531F531E43530F530023F199042
:10400300007DE02401FFE43480F97887860308E625
:10401300FA08E6C98FF012421A7887860308E6FA8F
:1040230008E6F91241B7FFE5F0547FFEC3E5379F79
:10403300F537E5369EF536740226F618E436F6189B
:10404300860308E6FA08E6F9E5368537F01241E219
:10405300788708E6FA08E6AE02C394B6FFEE94004A
:10406300FE7C007D0212416B9000B0EEF0A3EFF0F6
:10407300E49000B4F0A3F09000B0E0FFA3E0A3CF7E
:06408300F0A3EFF07F0145
:014089002214
:037C68007F002278
:037C6B007F002275
:037C6E007F002272
:037C71007F00226F
:037C74007F00226C
:1071E900E4FF90006AE0540F24FEB4090050419076
:1071F900720675F003A4C58325F0C5837302722155
:1072090002722402722702722A02722D0272390254
:107219007230027233027236027C71027C62027C25
:1072290065023CB3027C74027C68027C6B027C6E52
:02723900E4FF70
:01723B002230
:037C77000271E9AE
:10723C0085912130002153ECF05321F7432110A20A
:10724C00AF9201C2AF7595378521917F017E0012F7
:10725C00773443210480215321FBA2AF9201C2AFAA
:10726C00759537852191E4F521E591540470FA85E3
:10727C0091214321085321EF759537852191A20166
:02728C0092AFBF
:01728E0022DD
:10754200AE915306FCEF14601714600F24FE600620
:1075520024FC70118011430601800C43060280074F
:107562004306038002AE91A2AF9200C2AF75953777
:087572008E910000A20092AF0F
:01757A0022EE
:1000A600018601BE01BE01A500C401000100013C9C
:1000B60009D00A0720DE20E00178017A01845A5A25
:1000C6005A5A0000060C10080E070D090B0A1617DF
